:100000000C9434000C9451000C9451000C94510049
:100010000C9451000C9451000C9451000C9451001C
:100020000C9445010C9451000C9451000C94510017
:100030000C9451000C9451000C9451000C945100FC
:100040000C9451000C9451000C9451000C945100EC
:100050000C9451000C9451000C9451000C945100DC
:100060000C9451000C94510011241FBECFEFD4E02A
:10007000DEBFCDBF11E0A0E0B1E0E2EBF8E002C0EE
:1000800005900D92A238B107D9F711E0A2E8B1E0CE
:1000900001C01D92AD38B107E1F70E94B3030C9483
:1000A00057040C94000020E837E004C0F9013197B0
:1000B000F1F701970097D1F7089508959093C5003F
:1000C0008093C40088E18093C1008EE08093C200D9
:1000D0000895982F8091C00085FFFCCF9093C600B3
:1000E00008958091C00087FFFCCF8091C6000895DD
:1000F0001F93182F8A3028F06AE00E9424040E947F
:1001000078008091C00085FFFCCF812F6AE00E94BB
:100110002404905D9093C6001F910895CF93DF93C0
:10012000EC018A30910538F06AE070E00E943004FA
:10013000862F0E9478008091C00085FFFCCFCE0101
:100140006AE070E00E943004805D8093C600DF9119
:10015000CF910895FC0107C08091C00085FFFCCFBE
:100160009093C600319690819923B1F708958091BC
:100170007A00806480937A0080917A0086FDFCCFBB
:1001800080917900089580E680937C0080917A00C8
:10019000806480937A0080917A0086FDFCCF809104
:1001A0007900089581E680937C0080917A008064D4
:1001B00080937A0080917A0086FDFCCF809179004F
:1001C000089582E680937C0080917A008064809319
:1001D0007A0080917A0086FDFCCF809179000895A5
:1001E0000F931F930E94C300182F0E94D200082F64
:1001F0000E94E1001D56173170F4053760F00C388D
:1002000050F4853740F090E08C3808F091E081E0C0
:100210009827892F02C080E090E01F910F910895E8
:10022000109285011092840180E091E00E94AA0062
:10023000E0911E01F0911F010995089580918401BC
:10024000909185010B97B0F089E091E00E94AA009F
:100250008091840190918501909383018093820124
:100260001092870110928601E0911C01F0911D010E
:1002700081E009C082E191E00E94AA00E0911C01A6
:10028000F0911D0180E0099508951F920F920FB61D
:100290000F9211242F933F934F935F936F937F930C
:1002A0008F939F93AF93BF93EF93FF9380918401BC
:1002B00090918501019690938501809384018091AE
:1002C0008601909187010196909387018093860122
:1002D000E0912001F09121010995FF91EF91BF91EB
:1002E000AF919F918F917F916F915F914F913F91CE
:1002F0002F910F900FBE0F901F9018958091800145
:100300008093B30008958091800190918101909332
:100310008B0080938A0008958091800190918101E3
:100320009093890080938800089580916201809362
:10033000B3000895809162019091630190938B00C6
:1003400080938A0008958091620190916301909357
:1003500089008093880008958091620190916301E3
:100360008093B3009C0130938B0020938A003093DC
:1003700089002093880008958091800190918101E7
:100380008093B3009C0130938B0020938A003093BC
:100390008900209388000895E82FF0E0EE0FFF1FFA
:1003A000EE59FE4F80818093B3000895E82FF0E06E
:1003B000EE0FFF1FEE59FE4F8081918190938B00CD
:1003C00080938A000895E82FF0E0EE0FFF1FEE59AA
:1003D000FE4F8081918190938900809388000895D9
:1003E000E82FE295EF70F0E0EE0FFF1FEE59FE4FA1
:1003F00080818093B3000895E82FE295EF70F0E0DC
:10040000EE0FFF1FEE59FE4F8081918190938B007C
:1004100080938A000895E82FE295EF70F0E0EE0FE8
:10042000FF1FEE59FE4F8081918190938900809348
:1004300088000895E82FF0E0EE0FFF1FEE59FE4F01
:100440002081822F9181909389008093880020934E
:10045000B30090938B0080938A000895482F2091D9
:10046000890130918A012115310529F480916401B7
:100470008093B30014C02130310549F480916401A8
:100480009091650190938B0080938A0008C08091C1
:1004900064019091650190938900809388004423C2
:1004A00051F0C901019663E070E00E94440490930A
:1004B0008A0180938901089580916201909163017E
:1004C0008093B3009C0130938B0020938A0030937B
:1004D0008900209388008091890190918A0100977A
:1004E00029F4809180018093B3000895019749F425
:1004F000809180019091810190938B0080938A007C
:10050000089580918001909181019093890080935A
:10051000880008958EE292E090931D0180931C0163
:100520008CE592E090931F0180931E018DE590E091
:100530009093210180932001089580918801882360
:1005400039F120918401309185018091820190914F
:100550008301969587958217930768F480918001AF
:100560008093B300809162019091630190938B001E
:1005700080938A00089580918001909181019093E9
:100580008B0080938A00809162018093B30008956C
:1005900080916201909163018093B3009C0130933C
:1005A0008B0020938A00309389002093880008955F
:1005B0008DE590E090931D0180931C0190931F01A5
:1005C00080931E018DE992E0909321018093200198
:1005D00008958823E9F020918001309181012093D2
:1005E000B300C90190938B0080938A009093890097
:1005F0008093880080918201909183016AE070E08D
:100600000E9430046F5F7F4F70938C0160938B0169
:10061000089580916201909163018093B3009C01E1
:1006200030938B0020938A003093890020938800B8
:10063000089580918801882309F442C06091820165
:1006400070918301769567958091840190918501E1
:100650006817790708F073C02091840130918501F3
:1006600080918201909183018217930718F460E0D2
:1006700070E012C08091840190918501861B970BD8
:100680002FEF30E0AC01429FC001439F900D529F7D
:10069000900D11240E9430048091890190918A016B
:1006A000009721F4862F0E94F0010895019721F40C
:1006B000862F0E94FC010895862F0E940B02089548
:1006C000809186019091870160918B0170918C01DE
:1006D0008617970728F580918601909187012FEF63
:1006E00030E0AC01429FC001439F900D529F900D9E
:1006F00011240E943004261BE22FF0E0EE0FFF1FB2
:10070000EE59FE4F2081822F918190938900809332
:1007100088002093B30090938B0080938A00089503
:1007200080916201909163018093B3009C013093AA
:100730008B0020938A0030938900209388000895CD
:1007400089EE92E090931D0180931C0189E093E073
:1007500090931F0180931E0189E193E09093210102
:100760008093200108951F931092C50083E3809326
:10077000C40088E18093C1008EE08093C20084B100
:10078000866084B981EA809380008CE08093810048
:10079000239A539A83EA8093B00086E08093B10055
:1007A00084E08093700080E88093B40084E18093BB
:1007B000B30080E680937C0085E880937A00809186
:1007C0007A00806480937A000E94E10078942091FE
:1007D0008001822F9091810190938B0080938A00F9
:1007E0002093B30080E49FE128EC30E0F9013197D9
:1007F000F1F70197D9F78EE292E090931D01809373
:100800001C018CE592E090931F0180931E018DE501
:1008100090E0909321018093200111E00E94F0006C
:10082000882349F0809188018823C1F710938801BB
:100830000E941001F3CF80918801882379F31092F0
:1008400088010E941E01EACF991B79E004C0991F1C
:10085000961708F0961B881F7A95C9F7809508951A
:10086000AA1BBB1B51E107C0AA1FBB1FA617B707D6
:1008700010F0A61BB70B881F991F5A95A9F78095F2
:100880009095BC01CD01089597FB092E07260AD04B
:1008900077FD04D0E5DF06D000201AF4709561954D
:1008A0007F4F0895F6F7909581959F4F0895F8949E
:0208B000FFCF78
:1008B2005448524F574E0D0A004341554748540D74
:1008C2000A004341554748542A0D0A005D005D0065
:1008D2005D000000010002000200040005000800A3
:1008E2000C00110019002300330049006800950034
:1008F200D5003101B50171027E03FE042407360AD8
:100902009A0EE214DD1DB42A123D5457E27C95B2D0
:100912005FFFFF00FE00FD00FC00FB00F900F60097
:10092200F200EC00E400D700C500AB0086004F00E7
:020932000000C3
:00000001FF
